:020000040800F2
:10000000000002201D0D0008690D0008690D0008A0
:10001000690D0008690D0008690D00080000000066
:10002000000000000000000000000000C90D0008F2
:10003000690D000800000000550E0008AD0E000814
:10004000690D0008690D0008690D0008690D0008B8
:10005000690D0008690D0008690D0008690D0008A8
:10006000690D0008690D0008690D0008690D000898
:10007000690D0008690D0008690D0008690D000888
:10008000690D0008690D0008690D000800000000F6
:10009000000000000000000000000000690D0008E2
:1000A000690D0008690D0008690D0008690D000858
:1000B000690D0008690D0008690D0008690D000848
:1000C000690D0008690D0008690D0008690D000838
:1000D000690D0008690D0008690D000800000000A6
:1000E000690D0008690D0008690D00080000000096
:1000F000000000000000000000000000690D000882
:1001000000000000690D0008690D0008690D000875
:1001100000000000000000000000000000000000DF
:10012000690D0008690D0008690D0008690D0008D7
:10013000690D000800000000000000000000000041
:10014000000000000000000000000000690D000831
:10015000690D0008690D0008690D0008690D0008A7
:10016000690D0008690D0008000000000000000093
:10017000000000000000000000000000000000007F
:1001800000000000690D00080000000000000000F1
:10019000690D0008690D000810B5054C237833B9C6
:1001A000044B13B10448AFF300800123237010BD4A
:1001B000B803002000000000B4F10008084B10B59F
:1001C0001BB108480849AFF300800848036803B929
:1001D00010BD074B002BFBD0BDE81040184700BFF7
:1001E00000000000B4F10008BC030020B4030020AC
:1001F00000000000154B002B08BF134B9D46A3F5D4
:10020000803A00218B460F461348144A121A07F011
:10021000F6FC0F4B002B00D098470E4B002B00D064
:1002200098470020002104000D000D48002802D04E
:100230000C4806F0B6FF07F031FB2000290006F05D
:100240007FF906F0C9FF00BF00000800000002208F
:100250000000000089450008B80300209C340020FD
:10026000A3710008F575000808B5042006F0CAFD62
:1002700000280CBF0320002008BD00001FB504208B
:100280000DEB000106F0C0FD10B1039B082B07D257
:10029000FFF7EAFF0446B0B9FFF7F0FF044612E0AB
:1002A0000A48042106F0C0FD60B909490748082240
:1002B00006F0CAFDB0F10804044818BF012406F096
:1002C0005DFD00E00124204604B010BDDC030020E9
:1002D000E403002070B50F48042106F0C3FD60B9A7
:1002E0000D490C48082206F0CDFD082809480CBF2E
:1002F0000025022506F042FD0AE0FFF7B5FF064C97
:100300000026054607206671207106F091FA2660E6
:10031000284670BDD4030020E403002030B504203B
:1003200085B00DEB000106F06FFD044640B9064DA7
:1003300068710720287106F07BFA2C60204601E0E6
:10034000FFF7C8FF05B030BDE40300202DE9F04FF2
:10035000474D85B0834628790C46164606F068FA64
:100360000746002003F0BAFA8DF808B001908DF826
:10037000094034B92879DFF8F8A006F053FA90B1B3
:100380000BE0204607F0F6FB00230390DAB2A2420E
:10039000F0D2F25CC2540133F8E79AF8040006F098
:1003A00057FA804608B901245BE0BB68DAF8009090
:1003B000A3F5867399453ED2002637460DF1040A0F
:1003C00006EB09011AF80620404606F097FA0136B6
:1003D000002818BF0127042EF0D109F104015A4664
:1003E000404606F08BFA09F10501002822464046F6
:1003F00018BF012706F082FA002818BF012709F16B
:1004000006067CB13444A6420CD0C9EB0603534423
:10041000314640469A7806F071FA002818BF012745
:100420000136F0E740462E6006F013FA002FBAD1ED
:10043000FFF724FF14E09AF80430072B0CBF0520C7
:100440000720287106F010FA012328796B7106F055
:10045000EFF900235846214632462B60FFF776FF1E
:100460000446039807F08EFB204605B0BDE8F08FE8
:10047000E403002070B5FFF7F7FE0446C0B90D4E47
:10048000072570712846357106F0D2F93460FFF700
:10049000F5FE044660B9284606F0B4FC00284FF08B
:1004A000050008BF032406F0ADFC002808BF0324A4
:1004B000204670BDE403002038B50A4D0A4C28469A
:1004C00006F0AAFC2846094D0949224606F0DFFC41
:1004D000284606F0BFFC284622460649BDE83840BB
:1004E00006F0D5BCDC03002098010020D4030020D6
:1004F000A56D0008CD6D000870B5064614200C46A9
:1005000006F0CCFC224605463146074C00F03CFA8A
:1005100028464FF47A71256000F056FA20680121D0
:1005200000F0F6FA002070BDEC03002037B50B4D4B
:100530000421002440F201320DEB010301948DF8F7
:100540000700286800F04EFB286800F017FB0A201F
:1005500003F0ACF9204603B030BD00BFEC0300202F
:1005600037B500240B4D019413128DF805100421AA
:100570008DF806308DF807200DEB010340F48072F2
:10058000286800F075FB286800F012FB204603B0D5
:1005900030BD00BFEC03002010B5204C00232360C9
:1005A0002368052B16DC1E4AD05C1E4A10701E4ABA
:1005B0001268062101FB02331C4AD35C3BB10221C5
:1005C00040F22912FFF7CCFF0A2003F06FF92368ED
:1005D0000133E4E740F6B83003F068F90F4B00222E
:1005E0001A602368052B17DC0D4AD05C0D4A107089
:1005F0000D4A1268062101FB02330C4AD35C3BB161
:10060000012140F22912FFF7ABFF0A2003F04EF957
:10061000236801332360E4E7002010BDF8030020C5
:10062000EA010020F4030020F00300209C010020D8
:1006300038B50D4B00221A601C4623680A4D052B65
:100640000FDC0A4AD05C0A4B002140F229121870D4
:10065000FFF786FF0A2003F029F92B6801332B608E
:10066000EBE7002038BD00BFF8030020EA010020BE
:10067000F403002038B50F4B00221A601C46236893
:100680000C4D052B13DC0C4AD05C0C4B022140F2C4
:1006900029121870FFF764FF2B68094A00210A200D
:1006A000D15403F003F92B6801332B60E7E70020F6
:1006B00038BD00BFF8030020EA010020F403002049
:1006C0005004002038B50F4B00221A601C462368E6
:1006D0000C4D052B13DC0C4AD05C0C4B012140F275
:1006E00029121870FFF73CFF2B68094A01210A20E4
:1006F000D15403F0DBF82B6801332B60E7E70020CF
:1007000038BD00BFF8030020EA010020F4030020F8
:100710005004002038B50C4B0C4D0446185C0C4BB3
:1007200018702B5D33B1022140F22912FFF718FF38
:10073000002305E0012140F22912FFF711FF0123F8
:100740002B55002038BD00BFEA01002050040020D6
:10075000F403002010B5064C1021204605F0E0FB04
:1007600020460449044ABDE8104006F090BB00BF93
:10077000FC030020F55E00089801002038B5102227
:1007800004460D46002107F03AFA2046294603F0B8
:100790000DF8204638BD00002DE9F84304462DED44
:1007A000028B1420914698460D4606F077FB2946A9
:1007B000074600F06FFC0C214C431B4E9FED1B8A3B
:1007C0003751142006F06AFB35190746494600F0F8
:1007D00061FC6F60102006F061FB07464146FFF7A1
:1007E000CDFFFB687A68AF6030591A600A2100F0CB
:1007F000EFFC0121305900F0FCFCB0EE480A305902
:1008000000F06CFB68680A2100F0E2FC68680121D6
:1008100000F0EFFC6868B0EE480A00F05FFBBDEC4A
:10082000028B0020BDE8F883B8040020000000001F
:10083000104A0C23584310B514182DED028BA368F1
:100840001058D9685B680B60B0EE408A9FED0A0AC9
:1008500000F044FBB0EE480A606800F03FFB074B35
:1008600007491868543005F019FFBDEC028B0020D1
:1008700010BD00BFB804002000000000DC150020FF
:100880004CE200080C4A0C23584310B514181058B9
:10089000A368D9685B680B6000F020FB60689FED7F
:1008A000070A00F01BFB064B06491868543005F098
:1008B000F5FE002010BD00BFB804002000000000BD
:1008C000DC15002059E200080D4A0C23584310B5EE
:1008D0001418B6EE000AA3681058D9685B680B605C
:1008E00000F0FCFA6068B6EE000A00F0F7FA054B7B
:1008F00005491868543005F0D1FE002010BD00BF36
:10090000B8040020DC15002066E2000808B5B7EE48
:10091000000A0120FFF7B6FF4FF4FA7002F0C6FF9D
:10092000B7EE000A0120FFF783FF4FF4FA7002F0E0
:10093000BDFF0120FFF7C8FF002008BD08B50C4827
:10094000262100F0A7FB0B48272100F0A3FB15216F
:100950000948FFF713FF0948282100F09BFB0848CE
:10096000292100F097FB18210648FFF707FF08BD73
:100970007C04002090040020D004002068040020A3
:10098000A40400205804002070B505460C46164605
:100990000021102207F033F93146284602F006FF05
:1009A0002C61084C6368E2681B0413600A2002F0A3
:1009B0007DFFE36862681A60642002F077FF2846D2
:1009C00070BD00BFE0040020F8B504460D46006984
:1009D0004E4905F09DFB20690821002205F08EFBA1
:1009E000642D24D009DC142D19D0322D1BD00A2DF2
:1009F00029D10525B826312728E0FA2D1BD005DCA2
:100A00007D2D20D10525B82603271FE0B5F5FA7FF7
:100A100015D0B5F57A7F16D10125E82611E0052518
:100A2000B826182712E00525B82609270EE0052567
:100A3000B82604270AE00525B826012706E0052583
:100A4000B826002702E000252E462F466368E2689C
:100A50001B0413600A2002F029FF206903680221A9
:100A60001B689847206903682A211B6898472069FA
:100A7000036839461B6898470A2002F017FFE368AD
:100A800062681A600A2002F011FF6368E2681B04C2
:100A900013600A2002F00AFF2069036802211B6824
:100AA00098472069036829211B68984720690368D3
:100AB00031461B6898470A2002F0F8FEE368626836
:100AC0001A600A2002F0F2FE6368E2681B041360F9
:100AD0000A2002F0EBFE2069036802211B68984798
:100AE0002069036828211B68984720690368294604
:100AF0001B6898470A2002F0D9FEE36862681A6012
:100B00000A20BDE8F84002F0D1BE00BF80969800F0
:100B100038B504460D460069164905F0F9FA206912
:100B20000821002205F0EAFA042D98BF124BE26872
:100B300098BF5D5D636820694FEA034313600368F3
:100B40004FF005011B6888BF00259847206903689E
:100B50000F211B68984720690368E0211B689847AC
:100B60002069036829461B689847E36862681A6031
:100B700038BD00BF8096980071E2000810B50446A9
:100B80000A49006905F0C4FA20690821002205F02D
:100B9000B5FA6368E26820691B0413600368812169
:100BA0001B689847E36862681A6010BD80969800D9
:100BB00010B504460A49006905F0AAFA206908211F
:100BC000002205F09BFA6368E26820691B04136049
:100BD000036882211B689847E36862681A6010BD49
:100BE00080969800F8B504460D4600691F491646E0
:100BF0001F4605F08DFA20690821002205F07EFAD3
:100C00006268E368206912041A60036840211B6867
:100C1000984720690368C6F3C7011B689847206995
:100C2000036871011B6801F0E001984720690368BF
:100C300000211B6898472069036800211B689847BA
:100C40002069036829461B689847013D7E1E3D4484
:100C5000AE4206D0206916F8011F03681B6898474A
:100C6000F6E7E36862681A60F8BD00BF80969800F6
:100C7000F8B504460D4600691F4916461F4605F0A3
:100C800047FA20690821002205F038FA6268E36813
:100C9000206912041A60036842211B689847206982
:100CA0000368C6F3C7011B68984720690368710190
:100CB0001B6801F0E00198472069036800211B6868
:100CC00098472069036800211B68984720690368DA
:100CD00029461B689847013D7E1E3D44AE4206D022
:100CE000206916F8011F03681B689847F6E7E36858
:100CF00062681A60F8BD00BF8096980010B5064C77
:100D000000212046102206F07AFF20463221BDE85D
:100D1000104002F04BBD00BFE0040020DFF830D0EF
:100D2000002103E00B4B5B58435004310A480B4B46
:100D300042189A42F6D30A4A02E0002342F8043BE2
:100D4000084B9A42F9D302F047FCFFF753FA704779
:100D500000000220E8F1000898010020B8030020FC
:100D6000B80300209C340020FEE7000080F30988CF
:100D70007047EFF309807047684680F3098851484F
:100D80000078C00714BF0220032080F31488704746
:100D9000DFF834C1EFF305831B0618BF6047EFF39C
:100DA0001483DB0708BF604700DF7047DFF81CC112
:100DB000EFF305831B0618BF6047EFF31483DB07CF
:100DC00008BF604700DF7047EFF30980816911F8C1
:100DD000021C79BB90E80F1010B5E047BDE8104049
:100DE000EFF3098C8CE80700394B93E80600914239
:100DF00008BF704771B11EF0100F0CBF012000201A
:100E000081F820002CE9F00FC1F828C00CB403F0E1
:100E100059FC0CBC1A60D2F828C0BCE8F00F92F85C
:100E20002000002814BF6FF0120E6FF0020E8CF33A
:100E30000988704710B5274A1268914209D8264C94
:100E400054F8214090E80F10A047EFF3098C8CE88C
:100E50000F0010BD10B503F0C5FBBDE810401C4BE2
:100E600093E80600914208BF7047EFF3098C1EF02B
:100E7000100F0CBF0120002081F820002CE9F00F9A
:100E8000C1F828C00CB403F01DFC0CBC1A60D2F8E9
:100E900028C0BCE8F00F92F82000002814BF6FF0C3
:100EA000120E6FF0020E8CF30988704710B503F034
:100EB000EBFBFFF7D2BF10B503F0E4FB03F0E4FB5C
:100EC000FFF7CBBFA6E70008254700083F4700080B
:100ED000FC08002000000000FCFFFFFF30B5244BA1
:100EE00002681A60B5EEC00AF1EE10FA89B009D4B2
:100EF000F7EE007AB4EE670AF1EE10FAC8BFB0EE72
:100F0000670A01E09FED1B0AD0ED027A457CF8EEFE
:100F1000677A002327EE800A0393049305930693D0
:100F20000793037CFCEEC07A6022013BC0ED037A9C
:100F30000192CDED027A032B17D8DFE803F0080207
:100F40000406042404E0082402E00C2400E0002449
:100F500001A90748224602F02FF80548214615B19D
:100F600001F045F801E002F0ADF809B030BD00BF76
:100F7000F00400200000000083689BB190ED037A2C
:100F800007EE903AB8EE477AF8EE677AB7EE000AC5
:100F9000C7EE277AF4EEC07AF1EE10FAD8BFB0EEC1
:100FA000670A70479FED010A704700BF000000000C
:100FB000F0B52DED028B0768324C87B005460E4622
:100FC0002760FFF7D9FF3A6A41F211131340B0EEE0
:100FD000408A43B93A6A40F2444313401BB93B6824
:100FE00023F001033B6002F025FA01A8694601F0F5
:100FF000BDFB2B68244A93421DD00BD8A2F57C423E
:10100000934213D002F5806293420FD0B3F1804F28
:1010100034D10BE01D4A93420DD002F58062934219
:1010200009D0A2F50062934228D104E001F06EFBE2
:10103000049A009003E001F081FB059A0090731E72
:10104000E3601049009B12481AB95A00B2FBF0F352
:1010500001E0B3FBF0F3013B4B600A48002323613E
:10106000A36001F063FF2846B0EE480AFFF736FFA1
:101070002268AE60136843F00103136007B0BDEC53
:10108000028BF0BDF004002000000140004401404C
:1010900040420F0030B5044689B00D46084643492A
:1010A00002F02AFB41492060284602F041FBC0F3D0
:1010B000C32323742368C0F3C0300133607402D1AA
:1010C0003B4802F0CDFA23683A4A93420BD102F52D
:1010D0009C32516C41F001015164526C02F00102EA
:1010E0000192019A38E0B3F1804F0AD1324A116C73
:1010F00041F001011164126C02F001020292029AA5
:101100002AE02E4A93420BD102F50D32116C41F0C8
:1011100002011164126C02F002020392039A29E0A8
:10112000274A93420AD1244B1A6C42F004021A64F3
:101130001B6C03F004030493049B28E0214A9342B0
:101140000AD11D4B5A6C42F480325A645B6C03F432
:1011500080330593059B1AE01B4A93420AD1164B34
:101160005A6C42F400325A645B6C03F40033069309
:10117000069B0CE0154A934209D10F4B5A6C42F47E
:1011800080225A645B6C03F480230793079B074912
:10119000284602F075FA00232571A360E36020461B
:1011A00044F62061FFF704FF09B030BD98E4000861
:1011B00076E20008000001400038024000040040D0
:1011C0000008004000400140004401400048014048
:1011D0004FF47A735943FFF7EBBE07EE901AB8EE5F
:1011E000E70AD0ED027AF8EE677A80EE270AFFF779
:1011F00075BE4FF47A735943FFF7EFBF0E4B026889
:101200001A6082685A60C2689A600269DA6042694C
:101210001A6100229A6190F91920013201D1082245
:1012200005E090F9182001320CBF04220C2202487C
:101230005A6100F0A4BE00BF54050020124A70B5E8
:1012400052F82130114C0E4620601546D3B1026889
:10125000520608D50E4A18461268012190472368A5
:101260006FF040021A6023681B689B060AD5084B82
:1012700055F826001B6800219847044B1B686FF047
:1012800020021A6070BD00BF300500205405002008
:101290005005002001480021FFF7D0BF0010014099
:1012A00001480121FFF7CABF004400400148052161
:1012B000FFF7C4BF00140140F0B5044685B00846EE
:1012C0000E463949154602F017FA384907462846AE
:1012D00002F012FA0146384602F0F0F9344B206071
:1012E000984213D003F5806398421BD0A3F5504376
:1012F000984223D12F4B1A6C42F400321A641B6CB3
:1013000003F400330293029B012316E0294B5A6C2D
:1013100042F010025A645B6C03F010030193019BCE
:1013200000230AE0234B5A6C42F020025A645B6CA3
:1013300003F020030393039B0523636030461A499F
:1013400002F09EF92846194902F09AF9721C03D05E
:101350003046012100F054F96B1C03D028460121CE
:1013600000F04EF94FF41653A3600023E3602361AD
:101370006361267665762046FFF740FF22680E4BB4
:101380009A420FD10D4B01221A600D4B04F1180542
:10139000206861681A4603C20834AC421346F7D18C
:1013A0002068106005B0F0BD00E6000844E40008C5
:1013B0000010014000380240004400402C0500208D
:1013C000940500208160FFF719BF0000034B1960EE
:1013D0004168034B43F82120704700BF50050020AF
:1013E0003005002038B50D46234903680B602349BA
:1013F0008B420AD001F580618B4209D0A1F55041A2
:101400008B4208D11E49262407E01E49252404E00A
:101410001D49472401E000210C46A2B1DA6815B944
:1014200042F0200201E042F0400265B2DA60284654
:1014300001F062FF6D0904F007040123134AA34081
:1014400042F8253038BDDA6835B922F02002DA607A
:10145000DB681A0606D538BD22F08002DA60DB6848
:101460009B0608D46309012204F0070420330749CE
:10147000A24041F8232038BD54050020001001404F
:10148000A112000895120008AD12000800E100E06A
:101490000368034A18681360C0F34010704700BF28
:1014A0005405002038B5056804462046FFF7F0FFD4
:1014B0000028FAD06868C0F3080038BD0368034A02
:1014C00018681360C0F3C010704700BF54050020B7
:1014D00070B5066805460C462846FFF7EFFF002862
:1014E000FAD0C4F30804746070BD00007FB507280B
:1014F0004DD8DFE800F004101C28344C4C40274B3A
:1015000027481A6B42F001021A631B6B03F00103B8
:101510000093009B3FE0214B22481A6B42F00202ED
:101520001A631B6B03F002030193019B33E01B4B17
:101530001D481A6B42F004021A631B6B03F004038C
:101540000293029B27E0154B18481A6B42F00802E1
:101550001A631B6B03F008030393039B1BE00F4B01
:1015600013481A6B42F010021A631B6B03F010034E
:101570000493049B0FE0094B0E481A6B42F0800263
:101580001A631B6B03F080030593059B03E00A4875
:1015900002F066F8002007B05DF804FB0038024056
:1015A000000002400004024000080240000C02401B
:1015B00000100240001C024098E2000830B50546C9
:1015C00087B0C0F303100C4605F00F05FFF78EFF40
:1015D0000123AB4004F00F020193084B53F8223073
:1015E0000293C4F302130393C4F3C314032301A9A6
:1015F0000493059401F016F907B030BDBCE2000871
:1016000038B500F00F05C0F303100C46FFF76EFF6E
:101610006B00C16803229A4021EA0202032CC260D7
:10162000C16828BF00249C400C43C46038BD000042
:10163000054B186830B901221A60044B044A1A603D
:1016400001F0A0BE704700BFEC050020B0050020EF
:10165000000C004008B5044B1B680BB9FFF7E8FF0E
:10166000024B586A08BD00BFEC050020000C00408A
:10167000034B1B685863DA6842F00202DA60704775
:10168000B0050020034B1A68D36823F00203D3602F
:10169000704700BFB0050020024B1B686FF00202CC
:1016A0001A617047B005002010B50021044604F00F
:1016B0000F04FFF783FF0120A04010BD70B5044662
:1016C0004B1C0E4621700DD0C1F30310FFF70EFF27
:1016D00005463046FFF7E8FF05F110031835606056
:1016E000A360E56070BD90F90000FFF789BF012994
:1016F00090F9000018BF0021FFF760BFF0B5304B34
:101700001E688FB0002E59D101272E4D2E4C1F6020
:101710002E4B23602B6C43F080532B642B6C03F017
:1017200080530193019B01F014FB294B02A81F6019
:101730001E60042302930896049700F0F5FC70B92C
:10174000AB6823F4F813AB60AB6823F4F813AB6019
:101750002B6F43F480732B674FF400431AE00C2384
:1017600002A8029308960496079700F0DDFC10B1DA
:10177000184801F075FF134B9A6822F4F8129A602A
:101780009A6822F4F8129A601A6F42F400721A678B
:101790004FF4FA43104A0C480121DB091160013B68
:1017A00000227F216260A160E36022616261A26128
:1017B00001F037F910B1094801F052FF0FB0F0BD48
:1017C0001006002000380240F005002000280040EC
:1017D000400E4742F0E200083C0E47421CE300087E
:1017E000014B1868704700BF1006002010B5154C5B
:1017F000154B236090B002A92046002201F041FA67
:1018000001A90022204601F05DFA9DF804300D93F5
:101810009DF80530013B0B939DF806300A939DF827
:10182000073064330C939DF80830099310A89DF895
:10183000093008939DF80A3040F8243D06F0BEFABE
:1018400010B010BDF00500200028004030B589B070
:1018500008AB184D43F81C0D174A2A60184606F0CD
:1018600043F883698DF80830036901338DF8093036
:10187000C3688DF80A304369643B8DF80B30836888
:101880008DF80C3043688DF80D3003688DF80E30FC
:101890000024402302A9224628468DF814300694DD
:1018A000079401F080F9284603A9224601F008F9BF
:1018B00009B030BDF00500200028004008B501F057
:1018C000B9FDBDE8084001F01BBA000003681A68C2
:1018D00010B5104C22F0400223601A60C268036900
:1018E000626182682261072263608369E262426802
:1018F000E361E26000234269A3602046A3622362A1
:10190000A261636200F051FF2268136843F0400354
:10191000136010BD140600202DE9F04F89B0044675
:101920000F4608464B499DF9485090461E4601F027
:10193000E3FE49490190404601F0DEFE47498146F9
:10194000304601F0D9FE46498346284601F0D4FED0
:10195000019B49468246184601F0B0FE5146814639
:10196000584601F0ABFE0146484601F0A7FE3D4B4C
:10197000206098420BD103F584335A6C42F48052B4
:101980005A645B6C03F480530393039B3AE0364B39
:1019900098420BD103F500331A6C42F480421A646A
:1019A0001B6C03F480430493049B2BE02F4B984261
:1019B0000BD103F5FE331A6C42F400421A641B6C1F
:1019C00003F400430593059B1CE0294B98420BD17F
:1019D00003F582335A6C42F400525A645B6C03F490
:1019E00000530693069B0DE0224B98420AD103F563
:1019F00068435A6C42F480125A645B6C03F480139F
:101A00000793079B1349384601F03AFE40461249B6
:101A100001F036FE3046114901F032FE00236360CA
:101A2000A360E3603823A3616B1C84F81C80677794
:101A3000A677E57704D02846094901F021FE02E0A7
:101A40004FF4007363612046FFF740FF09B0BDE823
:101A5000F08F00BF54E6000884E30008E4E30008C8
:101A6000C0E600080030014000380040003C004063
:101A7000003401400050014010290CBF4FF40061B8
:101A80000021012A416004D0022A05D03AB98260BF
:101A900008E00021816005E08260002202E002226D
:101AA00082600122C2604269B2F5007F05D0002B3E
:101AB00014BF00224FF480224261002B14BF002388
:101AC0004FF482730361FFF701BF0000036810B594
:101AD000424C23F48062A24203D004F50054A34296
:101AE00039D13F4B994201DC382333E0A1F52A2359
:101AF0003C4CA3F56663A34201D830232AE0A1F54C
:101B00007423394CA3F51073A34201D8282321E094
:101B1000A1F53713354CA3F5D863A34201D8202390
:101B200018E0A1F5B703324CA3F55863A34201D8DE
:101B300018230FE0A1F537032E4CA3F5D853A34289
:101B400001D8102306E02C4B2C4C0B44A34294BF2D
:101B50000823002383612A4B9A423AD1294B9942A8
:101B600001DC382334E0A1F5C3231E4AA3F520731A
:101B7000934201D830232BE0A1F52A23A3F5666315
:101B8000934201D8282323E0A1F57423164AA3F534
:101B90001073934201D820231AE0A1F53713134A9A
:101BA000A3F5D863934201D8182311E0A1F5B70338
:101BB0000F4AA3F55863934201D8102308E00D4B58
:101BC000A1F53701A1F5D851994294BF082300230C
:101BD0008361BDE81040FFF779BE00BF00300140CF
:101BE0005FAE0A00DF9304007F841E00BFC62D0095
:101BF0007F8D5B003F5DC600C08782FE3F787D0120
:101C0000003800407F1A060003689A689007FCD5E8
:101C100089B2D9609A68D207FCD5024AD8681360A5
:101C2000704700BF140600202DE9F041154E4C24EA
:101C300004FB0064074688460434002545451ED051
:101C40004C237B430121F35801FA05F21A4213D0C9
:101C50000D4A236B5069D4F818E001FA03F30342EC
:101C60000AD05361206838B1DEF810201342074BC8
:101C700008BF02211B68984701350434DEE7BDE840
:101C8000F08100BF6C060020003C0140800800206D
:101C900000200121FFF7C8BF01200146FFF7C4BFA4
:101CA00002200121FFF7C0BF03200121FFF7BCBFC5
:101CB00004200121FFF7B8BF05200146FFF7B4BF9C
:101CC00006200146FFF7B0BF2DE9F74F9B464B1C9E
:101CD00081460D46019266D001F00F0808F1FF33EE
:101CE000C1F303100E2B09D8DFE803F00C10141811
:101CF0001C1C1C1C1C202020202020002C4F0024F9
:101D0000062616E02B4F0124072612E02A4F022454
:101D100008260EE0294F032409260AE0284F042450
:101D20000A2606E0274F0524172602E0264F062440
:101D30002826FFF7DBFB4FFA86FA0090072128469A
:101D4000FFF73CFC5046394601F0D6FA06F01F0179
:101D5000012202FA01F04FEA5A131C4941F823000C
:101D60001B4B89F8006053F828601A4989F80C5019
:101D70004C23634302FA06F5CA58C9F804402A43C3
:101D80000020C9F80800CA50132303FB046401EBC8
:101D90008403009ADA61C3F804B0C3F834800E4BB0
:101DA000019A1A6000E0084603B0BDE8F08F00BF5A
:101DB000911C0008991C0008A11C0008A91C00081F
:101DC000B11C0008B91C0008C11C000800E100E0BB
:101DD00044E300086C06002080080020F8B5426843
:101DE000124B0546007B00F00F014C2453F82130C4
:101DF0000F495443012606FA03F70E5926EA07064F
:101E00000E51132404FB023301EB830200245460BF
:101E10009A1D0C3301EB820201EB830354605C607A
:101E200040B22146FFF7CAFBAC60F8BD44E30008AE
:101E30006C0600202DE9F84306683369054623F453
:101E40004052C3682969C0691343AA683361F368C3
:101E500011436A6923F416430A43024323F00C0337
:101E60001343F360736923F44072AB69B0F5004F1C
:101E700043EA020373613F4B36D19E4203D003F520
:101E800080639E4216D100F059FC6F6819246043AC
:101E90007F00B0FBF7F700F051FC6A684FF0640870
:101EA0006043B7FBF8F752003F01B0FBF2F900F0D6
:101EB00045FC15E000F02AFC6F68192460437F00A0
:101EC000B0FBF7F700F022FC6A684FF0640860434B
:101ED000B7FBF8F752003F01B0FBF2F900F016FC37
:101EE00044436868400034E09E4202D0224B9E4248
:101EF00016D100F023FC6F6819246043BF00B0FBCB
:101F0000F7F700F01BFC6A684FF064086043B7FB0A
:101F1000F8F792003F01B0FBF2F900F00FFC15E07A
:101F200000F0F4FB6F6819246043BF00B0FBF7F7C3
:101F300000F0ECFB6A684FF064086043B7FBF8F709
:101F400092003F01B0FBF2F900F0E0FB4443686807
:101F50008000B4FBF0F0B0FBF8F008FB1092120127
:101F60003232B2FBF8F303F00F033B43B360BDE83A
:101F7000F88300BF0010014000140140704710B505
:101F8000044630B390F8393003F0FF021BB980F8F3
:101F90003820FFF7F3FF2268022384F83930D36832
:101FA00023F40053D3602046FFF744FF23681A69E7
:101FB00022F490421A615A6922F02A025A61DA68C0
:101FC00042F40052DA6000200123E06384F83930E3
:101FD00010BD012010BD10B50423046A8B4024EA13
:101FE00003030362036A8A401343036210BD10B502
:101FF000044604220068FFF7EEFF23685A6C42F49F
:1020000000425A641A6842F001021A60002010BDB2
:10201000074B1A6922F440721A611A691A611A6927
:1020200042F004021A611A6942F480321A61704760
:10203000003C024051B1012906D002290CBF4FF4E7
:1020400000714FF4407101E04FF480710E4B1A693A
:1020500022F440721A611A69114319611A6922F057
:10206000F8021A61F82292FAA2F2B2FA82F219691F
:10207000D2B2904041F00201084318611A6942F45B
:1020800080321A61704700BF003C02402DE9F041E8
:10209000234D2B7E012B074688463ED001234CF270
:1020A00050302B7601F0AEF8044688BB4FF0FF337A
:1020B000C8F800303B68012B0CD1FFF7A9FF4CF2A8
:1020C000503001F09FF8174A136923F004030446C7
:1020D00013611DE0BE68BA68FB6813449E4217D2C4
:1020E0003046397CFFF7A6FF4CF2503001F08AF8F9
:1020F0000C4B1A6922F002021A611A6922F0F802E6
:102100001A6118B1C8F80060044601E00136E2E740
:1021100000232B762046BDE8F0810220BDE8F08147
:1021200088080020003C02400368F7B5DD0704463C
:1021300003D4236898074CD49DE08C4B9A6802F036
:102140000C02042A07D09A6802F00C02082A0BD16C
:102150005B68590208D5854B1B689A03E9D563680B
:10216000002BE6D1012069E1814D00232B7000F0A6
:10217000E9FD06467D4B1B689B0308D500F0E2FD98
:1021800041F28833801B9842F4D9032056E1237929
:102190002B70636873B100F0D5FD0546734B1B6867
:1021A0009F03C6D400F0CEFD41F28833401B984215
:1021B000F4D9EAE700F0C6FD05466C4B1B689E03A8
:1021C000B7D500F0BFFD41F28833401B9842F4D9E7
:1021D000DBE7664B9A6812F00C0F07D09A6802F0A2
:1021E0000C02082A18D15B68580215D45F4A13689C
:1021F000990702D5E368012BB4D11168F82393FA4B
:10220000A3F3B3FA83F32069DBB2984021F0F8011D
:1022100040EA010313602EE0E268564BEAB1012266
:102220001A6000F08FFD054650490B689B0705D4E6
:1022300000F088FD401B6428F6D9A6E70A68F82359
:1022400093FAA3F3B3FA83F32069DBB2984022F048
:10225000F80240EA02030B600DE01A6000F072FD24
:102260000546424B1B689F0705D500F06BFD401BE0
:102270006428F6D989E723681E0703D423685D071D
:102280004BD51FE062693C4B72B101221A6000F02D
:1022900059FD0546354B5B6F9807EFD400F052FDB2
:1022A000401B6428F6D970E71A6000F04BFD054624
:1022B0002E4B5B6F9907E1D500F044FD401B64286D
:1022C000F6D962E7294B1A6C42F080521A641B6CF3
:1022D0002A4A03F080530193019B136843F48073EF
:1022E000136000F02FFD0546244B1B68DA0517D557
:1022F000234D00232B7000F025FD06461B4B1B6F62
:102300009B0713D4237A2B70A368FBB100F01AFD4E
:102310000546164B1B6F9F0710D5A26992BB72E052
:1023200000F010FD401B6428DED92EE700F00AFD06
:1023300041F28833801B9842E0D926E700F002FD85
:1023400041F28833401B9842E3D91EE700F0FAFCC3
:102350000546064B1B6F9E07DFD500F0F3FC41F2EC
:102360008833401B9842F4D90FE700BF0038024081
:102370000238024000004742800E47420070004091
:10238000703802402E4B9B6803F00C03082B3FF47F
:10239000E9AE2C4D0023022A2B6042D100F0D2FC82
:1023A000064627490B6898012FD447F6C07292FA67
:1023B000A2F2B2FA82F24FF4403696FAA6F6B6FAD4
:1023C00086F64FF0706090FAA0F0B0FA80F0E36902
:1023D000276A1F43636AD2B2934047EA0302A36AA3
:1023E0005B08013BF6B2B3401343E26AC0B28240DD
:1023F00013434B6001232B6000F0A4FC0446104BF8
:102400001B689A0107D5002018E000F09BFC801B98
:102410006428C6D9B9E600F095FC001B6428EED903
:10242000B3E600F08FFC0446054B1B689B01EAD520
:1024300000F088FC001B6428F6D9A6E603B0F0BDC6
:1024400000380240600047427F4B1A6802F00F02DA
:10245000914270B504460D4677D9CAB21A701B680E
:1024600003F00F038B4201D0012070BD01688B0780
:1024700041BF7648836823F0F002A36844BF13434A
:102480008360CE070BD421684D0740F1CC806F48A4
:10249000836823F4E052E36813438360C3E0636816
:1024A0006A4A012B03D1126812F4003F08E0991E1A
:1024B0000129126802D812F0007F01E012F0020F29
:1024C000D2D062498A6822F0030213438B6000F085
:1024D00039FC6368012B05460ED15C4B9B6803F009
:1024E0000C03042BCFD000F02DFC41F28833401BAD
:1024F0009842F2D9032070BD022B0DD1534B9B683B
:1025000003F00C03082BBED000F01CFC41F2883312
:10251000401B9842F2D9EDE7032B10D14B4B9B683F
:1025200000F010FC41F28833401B9842F6D9E1E7F5
:1025300000F008FC41F28833401B9842DAD8434B44
:102540009B6813F00C0FF3D19DE70168880741BF2A
:102550003E48836823F0F002A36844BF13438360BE
:10256000CA0709D4384BEAB21A701B6803F00F038C
:10257000AB427FF479AF86E76368344A012B03D11D
:10258000126812F4003F08E0991E0129126802D86F
:1025900012F0007F01E012F0020F3FF465AF2B490B
:1025A0008A6822F0030213438B6000F0CBFB636860
:1025B000012B06460DD1254B9B6803F00C03042B21
:1025C000D0D000F0BFFB41F28833801B9842F2D993
:1025D00090E7022B0DD11D4B9B6803F00C03082BD9
:1025E000C0D000F0AFFB41F28833801B9842F2D993
:1025F00080E7032B11D1154B9B6800F0A3FB41F240
:102600008833801B9842F6D974E700F09BFB41F2B7
:102610008833801B98423FF66DAF0C4B9B6813F0DC
:102620000C0FF2D19EE70B0741BF084A216993685E
:1026300023F4604344BF43EAC10393600F2000F0DA
:10264000A1FE002070BD00BF003C024000380240E7
:1026500030B51D4CA36803F00C03042B30D0082BBD
:1026600030D16268636802F03F0513F4800F47F6CB
:10267000C071636891FAA1F1B1FA81F147F6C070B7
:1026800004BF124AB2FBF5F2C9B200EA030020FA15
:1026900001F01CBF0E49B1FBF5F202FB00F30A4A40
:1026A00050684FF4403292FAA2F2B2FA82F2D2B2F9
:1026B00000F44030D04001304000B3FBF0F030BDBA
:1026C000034830BD014830BD003802400024F4000A
:1026D00000127A0008B5FFF7BBFF094B9A68F02398
:1026E00093FAA3F3B3FA83F302F0F002DBB222FA17
:1026F00003F3044AD35CD840034B186008BD00BF05
:102700000038024008E70008F001002008B5FFF794
:10271000E1FF084B9A684FF4E05393FAA3F3B3FA3E
:1027200083F302F4E052DBB222FA03F3024AD35CF1
:10273000D84008BD0038024008E7000808B5FFF798
:10274000C9FF084B9A684FF4604393FAA3F3B3FAB6
:1027500083F302F46042DBB222FA03F3024AD35C51
:10276000D84008BD0038024008E700080F23036086
:102770000B4B9A6802F0030242609A6802F0F00282
:1027800082609A6802F4E052C2609B6803F460437E
:10279000DB080361034B1B6803F00F030B607047FA
:1027A00000380240003C0240704710B50446002843
:1027B00036D090F8513003F0FF021BB980F850205A
:1027C000FFF7F2FF6168A0680843E16808432169E8
:1027D00002230843616984F8513023680843E169A2
:1027E0001A680843216A22F040021A600843A2696D
:1027F000A16A084302F4007101431960120C616A76
:1028000002F004020A435A60E26A1A61DA6922F4A9
:102810000062DA6100200123606584F8513010BD48
:10282000012010BD2DE9F3410F68002301229A40D9
:1028300002EA0705954240F0B3804C6824F0100C82
:10284000BCF1020F14D14FEAD30E00EB8E0E03F051
:102850000706DEF82020B6004FF00F0808FA06F849
:1028600022EA08080A69B24048EA0202CEF82020AB
:102870004FEA430E0322066802FA0EF2D24302EA3E
:10288000060804F0030606FA0EF60CF1FF3C48EACF
:102890000606BCF1010F066011D8866802EA060C34
:1028A000CE6806FA0EF64CEA06068660466826EA08
:1028B000050CC4F300169E404CEA06064660C66846
:1028C00002EA060C8A6802FA0EF64CEA0602C260B8
:1028D000E20065D5364A566C46F480465664526C22
:1028E00023F0030606F1804602F4804206F59C368A
:1028F000019203F0030C019AD6F808E04FEA8C0C21
:102900000F2202FA0CF22EEA020E2A4A904212D04C
:1029100002F58062904210D002F5806290420ED0A3
:1029200002F5806290420CD002F5806290420CBFAA
:102930000422052206E0002204E0012202E0022235
:1029400000E0032202FA0CF242EA0E02DFF868E02D
:10295000B260DEF80020EE4314F4803F14BF2A4337
:102960003240CEF80020DEF80420DFF84CE014F40A
:10297000003F14BF2A433240CEF80420DEF808207E
:1029800014F4801F14BF2A433240CEF80820DEF82A
:102990000C20A40254BF06EA02051543064AD5607E
:1029A0000133102B7FF442AF02B0BDE8F08100BFCD
:1029B0000038024000000240003C014070470268BD
:1029C00038B5D36823F0A003D360044600F0BAF909
:1029D00005462368DB689B0607D400F0B3F9401B6B
:1029E000B0F57A7FF5D9032038BD002038BD38B561
:1029F0000368DA685206044601D5002038BD4FF05E
:102A0000FF32DA6000F09EF905462368DB685B065A
:102A1000F3D400F097F9401BB0F57A7FF5D9032085
:102A200038BD10B5044600283DD0437F03F0FF02B7
:102A300013B90277FFF7C2FF022363772368CA2224
:102A40005A6253225A622046FFF7D1FF236820B111
:102A5000FF225A620423637725E09A6822F4E00299
:102A600022F040029A60996862681143226911431A
:102A700062690A439A60E2681A611A69A16842EAC7
:102A800001421A61DA6822F08002DA601A6C22F4DC
:102A900080221A64196CA2690A431A64FF225A62DE
:102AA0000123637710BD012010BD0023092803D93D
:102AB0000A380133C0B2F9E740EA0310C0B27047E8
:102AC000037F012B2DE9F04106460F464FF002052A
:102AD00066D00123037703684577087891F8018071
:102AE0008D789B68AAB913F0400308BF0B72FFF7FB
:102AF000DCFF04464046FFF7D8FF80462846FFF734
:102B0000D4FF3B7A40EA034040EA044040EA08240C
:102B10000BE013F0400308BF0B724FEA082848EAA5
:102B20000044087A254345EA00443368CA225A62C1
:102B300053225A623046FFF75AFF3368054630B1D8
:102B4000FF225A6204237377002333771FE004F0D7
:102B50007F3020F0FE4018609A6822F480229A604C
:102B60009968FA6811433A690A439A60DA6822F070
:102B70008002DA609B689B060BD43046FFF71FFF8C
:102B800038B13368FF225A62042373773577012501
:102B900006E03368FF225A620123737700233377FC
:102BA0002846BDE8F081037F012B2DE9F041064660
:102BB0000F464FF0020558D00123037745774B7835
:102BC000C8788D7891F80080002A47D1DA0603D5BD
:102BD00023F010020A324A70FFF767FF0446787844
:102BE000FFF763FF07462846FFF75FFF40EA4830DC
:102BF00040EA044040EA07243368CA225A6253225A
:102C00005A623046FFF7F3FE3368054630B1FF22C3
:102C10005A62042373770023337715E024F07F4052
:102C200020F0C0005860DA6822F08002DA609B6809
:102C30009B060BD43046FFF7C2FE38B13368FF2243
:102C40005A6204237377357701250EE03368FF223B
:102C50005A62012373770023337706E01B0243EAAD
:102C60000040284340EA4834C6E72846BDE8F081E2
:102C7000030903EB830300F00F0000EB4300C0B235
:102C80007047036870B50C46996A1B686160C3F3AE
:102C90000540C3F3062603F07F0503F480031B0CF5
:102CA00020706670A570237252B9FFF7E1FF2070A3
:102CB0003046FFF7DDFF60702846FFF7D9FFA070B0
:102CC000002070BD03685B6870B5C3F30740C3F3B1
:102CD000042603F03F05C3F342330C46C8704E7020
:102CE0008D700B7052B9FFF7C3FFE0703046FFF7ED
:102CF000BFFF60702846FFF7BBFFA070002070BDCB
:102D000008B50B4B1A6842F400721A601A6842F454
:102D100080621A601A6842F480721A60032000F020
:102D2000E7F90F2000F02EFB00F012F8002008BD9C
:102D3000003C0240024A136801331360704700BF31
:102D400084080020014B1868704700BF84080020E9
:102D500070474FF4807393FAA3F3B3FA83F3DBB2B3
:102D60009B0003F1844303F5602301221A6070473E
:102D7000036A23F001030362036A426870B5846941
:102D80000D6824F07304254323F002048B68234369
:102D90000A4CA0420BD1CC688E6923F00803234370
:102DA0004C6922F44072344323F00403224342600E
:102DB0004A6885614263036270BD00BF0000014044
:102DC000036A23F480730362036A426830B5C469FE
:102DD0000D6824F073042C438D6823F4007343EAD8
:102DE00005230C4DA8420ED1CD6823F4006343EABD
:102DF00005234D6922F4405242EA05128D6923F4FD
:102E0000806342EA051242604A68C461C263036299
:102E100030BD00BF00000140036A23F48053036209
:102E2000036A30B54468C2690D6822F4E64242EA9A
:102E300005228D6823F4005343EA0533064DA8426A
:102E400002BF4D6924F4804444EA85144460C261A1
:102E50004A680264036230BD000001407047704759
:102E6000224A036890420ED0B0F1804F0BD0A2F5F9
:102E70007C42904207D002F58062904203D002F576
:102E80008062904214D14A6823F070031343174ABA
:102E9000904225D0B0F1804F22D0154A90421FD0E9
:102EA00002F5806290421BD002F58062904217D0FA
:102EB000104A904214D002F58062904210D002F580
:102EC000806290420CD003608B68C3620B6883629F
:102ED000064B984204BF0B690363012343617047AB
:102EE000CA6823F440731343EDE700BF00000140BC
:102EF000000400400040014010B50446A0B190F825
:102F0000393003F0FF021BB980F83820FFF7A6FF25
:102F1000022384F839302068211DFFF7A1FF012327
:102F200084F83930002010BD012010BD10B50446D2
:102F3000A0B190F8393003F0FF021BB980F83820B7
:102F4000FFF78DFF022384F839302068211DFFF739
:102F500087FF012384F83930002010BD012010BD07
:102F6000036A23F010030362036A426830B5846980
:102F70000D6824F4E64444EA05248D6823F0200318
:102F800043EA05130B4DA8420ED1CD6823F0800310
:102F900043EA05134D6922F4406242EA85028D69D5
:102FA00023F0400342EA850242604A6884618263FA
:102FB000036230BD0000014038B590F83830012B75
:102FC00004460D464FF0020058D0012384F83830F3
:102FD00084F839000C2A4BD8DFE802F0074A4A4A45
:102FE000174A4A4A294A4A4A39002068FFF7C0FE70
:102FF00023689A6942F008029A619A6922F00402F1
:103000009A6199692A690A430FE02068FFF7A8FFCF
:10301000236829699A6942F400629A619A6922F4E4
:1030200080629A619A6942EA01229A6120E02068EE
:10303000FFF7C6FE2368DA6942F00802DA61DA694E
:1030400022F00402DA61D9692A690A430FE0206894
:10305000FFF7E2FE23682969DA6942F40062DA6167
:10306000DA6922F48062DA61DA6942EA0122DA611D
:103070000123002084F8393084F8380038BD10B5B9
:103080000123046A8B4024EA03030362036A8A4033
:103090001343036210BD000010B50446012200680E
:1030A000FFF7EDFF2368064A934202BF5A6C42F4D1
:1030B00000425A641A6842F001021A60002010BDF2
:1030C0000000014010B5044601220068FFF7D7FF59
:1030D0002368064A934202BF5A6C42F400425A6483
:1030E0001A6842F001021A60002010BD0000014081
:1030F000074AD36823F4E0631B041B0C43F0BF634F
:1031000043F4003300F0070043EA0023D360704724
:1031100000ED00E0074B1A6922F440721A611A6947
:1031200042F400721A611A6942F001021A610160E8
:10313000704700BF003C0240074B1A6922F44072FE
:103140001A611A6942F480721A611A6942F0010226
:103150001A610180704700BF003C0240194BDA68D9
:10316000D20641BF1849CA6942F01002CA61DB6841
:103170009B0641BF144AD36943F00803D361114B46
:10318000DA68500641BF1049CA6942F00402CA61B8
:10319000DB68190641BF0C4AD36943F00203D361CF
:1031A000084BDA68D20541BF0749CA6942F00102FB
:1031B000CA61DB689B0741BF034AD36943F0200320
:1031C000D3617047003C024088080020064B1A6912
:1031D000002ABFBF054A5A6002F188320020B4BFFE
:1031E0005A600120704700BF003C02402301674540
:1031F000034A136943F0004313610020704700BF86
:10320000003C024038B50F4B00220446DA61FFF75C
:1032100099FD05460C4BDA68D2030AD5611CF9D03A
:103220000CB9032038BDFFF78DFD401BA042F1D93A
:10323000F7E7D86810F4F97002D0FFF78FFF01208C
:1032400038BD00BF88080020003C02402DE9F04155
:10325000274E1D46337E012B80460F46144643D031
:1032600001234CF250303376FFF7CCFF002837D1E2
:10327000204BB8F1000F0CD1186920F44070186190
:103280001A691A611869E4B240F0010018613C70D3
:103290001DE0B8F1010F04D13846A1B2FFF74CFF91
:1032A00015E0B8F1020F04D138462146FFF732FF8E
:1032B0000DE01A6922F440721A611A6942F44072F0
:1032C0001A611A6942F001021A61C7E900454CF21D
:1032D0005030FFF797FF074A136923F0010313618A
:1032E00000233376BDE8F0810220BDE8F08100BF05
:1032F00088080020003C024010B50C4CA268A4686D
:10330000B4F1006F13460CD1131F094A53F8044F50
:1033100042F8044F074CA242F8D1044A4FF0005340
:103320009360103043F8201010BD00BF00ED00E0A6
:10333000FCFFFF1F9401002038B5104B1A68D268BB
:1033400012F0020F1C4601D000F084F92368DA68FD
:10335000520711D56FF00402094D1A615C6A2B689F
:10336000E31AB3F57A7F07D3FFF7E4FC034B2C6035
:103370001B6804F57A729A6338BD00BFAC08002060
:10338000A8080020234B37B51A6C234C42F00802E2
:103390001A641A6C02F008020192019A1A6A42F049
:1033A00008021A621A6A22F008021A6200F042F851
:1033B0001A4B23604FF0FF33E360194B194A1B6827
:1033C000B3FBF2F30025013B204663602561A56055
:1033D0006561FFF791FD32201349FFF78DFF134B15
:1033E0004FF480225A6029462046FFF755FE2046BA
:1033F0000421FFF751FE23680D495A6A0A6002F55D
:103400007A729A63DA68284642F00402DA6003B0FE
:1034100030BD00BF00380240AC080020000C004066
:10342000F001002040420F003933000800E100E0C5
:10343000A8080020174A1849936803F00C03042BCE
:1034400003D0082B03D0154B18E0154B16E050683D
:10345000536810F4800F03F03F03506814BF104A04
:103460000E4AB2FBF3F30B4A5268C2F30142C0F3B7
:103470008810013243435200B3FBF2F30B60054B5B
:10348000084A9B68C3F30313D25C0B68D3400B60FC
:10349000704700BF00380240F00100200024F40013
:1034A00000127A0018E700081F4B10B51A6C42F0A2
:1034B00080521A641B6C1D4A94B003F08053019330
:1034C000019B136823F4404343F4004313601368E3
:1034D00003F440430293029B0123089300B10523A8
:1034E00009934FF480030F93042302241093C02206
:1034F000129308A808230E9411921393FEF714FE5A
:1035000078B90F23039305904FF48053079003215C
:1035100003A804940693FEF797FFB0FA80F04009E1
:1035200000E0002014B010BD0038024000700040E0
:10353000204B70B51A6C42F080521A641B6C1E4A04
:1035400094B003F080530193019B136823F440432C
:1035500043F400431360136803F440430293029B57
:103560000123C0220B931023002403250C93022671
:103570000823119208A80422089509940E960F9426
:10358000109312921393FEF7CFFD78B90F23039394
:1035900005904FF480530790294603A8049606939C
:1035A000FEF752FFB0FA80F0400900E0204614B068
:1035B00070BD00BF003802400070004008B5012017
:1035C000FFF772FF30B9FFF76FFF18B9FFF7B0FFD1
:1035D00000B9FEE708BD0000174AD2F8883010B5E0
:1035E00043F47003154CC2F888302368002143F07F
:1035F00001032360A160236823F0847323F48033E4
:1036000023600F4B6360236823F4802323604FF013
:103610000063E16093600B4B0B4A1A60FFF770FB8D
:10362000FFF7CCFF236A43F008032362236A23F0E9
:103630000803236210BD00BF00ED00E00038024027
:1036400010300024F00100200024F40000487047EE
:103650003CE70008014800F0B5B800BF3CE70008AF
:103660000FB407B5054B04AA1B6852F8041BD868B1
:10367000019204F0E9FE012003F0AEFD08030020F2
:1036800010B50446013001D110BD0C3191F9003064
:103690005A1C0BD0A342F8D120468968FDF78EFF53
:1036A00020460021BDE81040FDF7AABF0248BDE852
:1036B0001040FFF7D5BF00BF44E70008884208B5B7
:1036C0000AD0431C07D0013106D00448FFF7C8FFD9
:1036D0004FF0FF3008BD084608BD00BF55E70008A1
:1036E00091F900305A1C05D0834201D148687047D7
:1036F0000C31F5E718467047421C10B5044607D058
:10370000FFF7EEFF431C044602D10248FFF7A8FF73
:10371000204610BD66E7000891F900305A1C05D01C
:10372000834201D1886870470C31F5E7184670472D
:10373000421C10B5044607D0FFF7EEFF431C0446B9
:1037400002D10248FFF78CFF204610BD86E7000833
:1037500070B50E4604461546FDF7B0FF013609D098
:1037600020460021FDF7C3FF20462946BDE87040F2
:10377000FDF7B9BF70BD0022FFF7EABF70B50E4676
:1037800004461546FDF79AFF01360ED0E1686368DE
:1037900005B91B0420460B600121FDF7A8FF204658
:1037A0000021BDE87040FDF79EBF70BD0022FFF70D
:1037B000E5BF38B5036804461B680D469847636843
:1037C0001D6038BD036870B5DB68044698476368C0
:1037D0005A6823681AB99B68BDE8704018475B684F
:1037E00015689847281A0028636808DC5A689168A9
:1037F00059601B68002BEAD050689847E7E72168BA
:103800005A680B691068BDE87040184770B50D46DE
:1038100072B64668746881E80C00002334B12168F0
:10382000511A002902DB2346A468F7E72BB9036885
:1038300075601B691046984700E09D60AC6062B6F9
:1038400070BD08B572B6426853688B420BD19B6855
:103850005360026813B9936898470AE012691868C0
:10386000904706E0134623B19A688A42FAD18A68E3
:103870009A6062B608BD03685B68184738B50446AD
:10388000FDF7E8FE0546FDF7E5FE401BA042FAD332
:1038900038BD0000DFED047A20EE270AFDEEC07A85
:1038A00017EE900AFFF7EABF002474494FF47A73C9
:1038B0005843FFF7E3BF0000064B1B6810B50446F2
:1038C00003B19847044B1B681BB12046BDE810406C
:1038D000184710BDF401002000020020074B1B68B0
:1038E00010B504461BB1984708B9FFF7E5FF044B34
:1038F000186800B1804704B1206010BDF8010020B5
:10390000FC01002008B572B69620FFF7CFFF962085
:10391000FFF7CCFFF8E70123103903708908002373
:10392000437083704360038143818381C181704709
:1039300070B5858904461646002D34D043891A1D7A
:10394000013350F822200A60C2899BB29A42438117
:1039500004BF002343814368EBB14378022B1AD1A3
:1039600000F01CFD0021054600F02EF92389E969CD
:103970001A1D013344F82210E2899BB29A42238136
:1039800008BF0023284608BF238100F0B3FD284666
:1039900000F096F905E0EFF3108372B6013DA581C2
:1039A00062B6002070BD82B14268094B1AB1196835
:1039B00000F0DCFC05E01B6843605A60986001235E
:1039C00043703046082100F09DF9012070BD00BF12
:1039D000FC080020C2898089101A704708B500F0E1
:1039E0009DFDBDE8084000F0EBBD838910B504469D
:1039F000EBB14389043350F823300B604378022B3A
:103A000004D1002100F08AFD00F0DAFDEFF310830D
:103A100072B6A389013BA38162B66389E28901334F
:103A20009BB29A42638104D10023638101E018466E
:103A300010BD042010BD0000426870B504460E465B
:103A4000002A4AD04578022D1CD0032D0AD0012D22
:103A50005DD100F0A3FC04461021324600F0BDF811
:103A6000657034E0084600F05DFE054600284ED043
:103A7000204600F093FC2946044600F0A5F80123F7
:103A8000637024E000F08AFC0021054600F09CF8F9
:103A90002389E9691A1D44F82210EFF3108272B6E7
:103AA000A2890132A28162B6E28901339BB29A42B5
:103AB000238104BF00232381012328466B7000F07B
:103AC00019FD13482946BDE8704000F04FBC204660
:103AD00000F010FD0E482146F5E78189C08981423A
:103AE00010D223891D1D44F82560EFF3108572B6AE
:103AF0000131A18162B601339BB2834214BF23819D
:103B0000228170BD0320BDE8704000F028BD70BD6B
:103B10005C090020034B00221A60034A1268DA8015
:103B2000704700BFF0080020B4E7000808B5104B4C
:103B300010485A68104B196891421FBF1A60DA8802
:103B400002F1FF3102681CBF52189A809A880388DC
:103B50009A420BD1084B064800221A6000F01EFC66
:103B6000BDE808400146024800F000BC08BD00BFA7
:103B70005C090020F8080020F0080020436AF0B536
:103B8000C46A23F0030323445A0748BF043B4FF0A1
:103B9000807203E90600A3F14005A3F14402A3F1FA
:103BA0000C06002742F8047FB242FAD1C26943F8FA
:103BB000202CC3788562012B18BF024B016318BF0C
:103BC0002360F0BDA52E5AE290F82020836A0AB146
:103BD000603300E020331960704710B590F8204042
:103BE000836A0CB1603300E0203383E8060010BD27
:103BF00010B5038B42781943062A04460183438B90
:103C000004D101EA03029A4219D105E0052A16D12E
:103C100011EA030213D0428321EA030121832046E3
:103C200000F068FC0123204663700821628BFFF7D7
:103C3000D4FF21460248BDE8104000F097BB10BDFC
:103C40005C09002008B5044800F0A8FB034B58604D
:103C50000223437008BD00BF5C090020FC0800205F
:103C6000064B1A88064B0120904204D853F8041FD3
:103C700011B10130F8E70020704700BFA4E7000849
:103C8000F411002030B500240125047045708170C6
:103C900044608460C46004618482C4820483448379
:103CA00080F820401146BDE83040FFF767BF0000B4
:103CB000024B586002234370704700BFFC0800208D
:103CC00070B5044618B9BDE87040FFF7BBBF0B4D97
:103CD000A278286883789A424FF0010607D900F04D
:103CE0006FFB2B685E7002236C60637070BD667042
:103CF00021460348BDE8704000F038BBFC080020B6
:103D00005C09002038B50D46014678B14FF6FF73C7
:103D10009842074C02D0206800F05CFB23680548FD
:103D20005D7000F03BFB02236060437038BD00BF54
:103D3000FC0800205C090020024B186800B1C07824
:103D4000704700BFFC08002010B588B9174B1B68EE
:103D50009970174843689B788B4222D9134C21688D
:103D600000F004FB236801225A70FFF76BFF18E094
:103D7000104B1B88984216D801380F4B53F820403F
:103D80008CB10A4BA1701B689C42E2D0204600F027
:103D900097FB6378012B04D1054800F0FFFAFFF789
:103DA0008FFF002010BDFF2010BD00BFFC080020C9
:103DB0005C090020A4E70008F811002070B5184D38
:103DC00018B12B68DB78984213D12E6800247470E8
:103DD000FCF7CFFFB06200F075FC2A681149D37878
:103DE0002C60013B41F82340D462FFF72BFF2046B3
:103DF00070BD0D4B1B8898420FD8441E094E56F8D3
:103E0000245055B1284600F045FB284600F072FBCF
:103E1000002046F82400E86270BDFF2070BD00BF9E
:103E2000FC080020F8110020A4E7000810B5284B7A
:103E30001A880023934205D22649002041F8230026
:103E40000133F7E7244C254AFF23E370244B1B88FA
:103E500063622046234BE3620021FFF713FF224AEF
:103E60000023042111705360204A1170D360136144
:103E700093821F4A1460022262701E4A13705370AC
:103E80001D4B1B78D370FFF745FE1C4B1A6842F49C
:103E90007F021A601B681B0203F07F43DB43B3FA07
:103EA00083F3174A17481268DBB2C3F10803C2F361
:103EB00002229A42A8BF531C6FF08071026801FA77
:103EC00003F303F07F4122F07F430B43036010BDF7
:103ED000A4E70008F8110020040900205D4500084F
:103EE000ACE70008541200205C09002044090020BF
:103EF000FC08002074110020AEE7000820ED00E06F
:103F00000CED00E01CED00E008B500F0A3FB0C4B4D
:103F10000028186012DB00F1604000F56440FF22C9
:103F200002701A6853119B0003F1604303F561436B
:103F300002F01F02012101FA02F21A6008BD00BF5F
:103F40005C14002038B1830704D10378002B18BF1C
:103F5000002070470020704700B5DFF80CC000DF7C
:103F6000DFF808C000DFFEE7114100082941000822
:103F70000B4A136830B5002433B11D89A94203D31D
:103F80001C46491B1B68F7E789B20360018113B126
:103F90001D89691A19810CB1206030BD106030BDD7
:103FA0003C090020431C11D00B4B984211D80B4BFD
:103FB0001B684FF47A715A1E01FB0020B0FBF3F02E
:103FC0004FF6FE73984228BF184670474FF6FF70B1
:103FD00070474FF6FE70704700093D00A8E70008E3
:103FE00038B5084C257855B9FFF720FF064B1B68FC
:103FF000FF229A70284600F0B4FA012323700020B3
:1040000038BD00BF38090020FC08002010B5EFF3D0
:1040100005845CB9EFF31484E40703D4BDE81040D1
:10402000FFF7DEBFDFF808C000DF10BD822010BD43
:10403000E13F000810B588B0EFF3058434BBEFF31F
:10404000148404F00304022C0CD0032C16D0012C91
:104050001ED008AC84F309880F4C2478E40705D5FA
:10406000022404E00C4C2478E4070BD4032484F3EA
:104070001488BFF34F8FBFF36F8F03E0064C247893
:10408000E40705D4DFF814C000DF02E0822000E07E
:10409000FF2008B010BD00BFA6E700083D420008A1
:1040A0002DE9F8438946044650B1036843B1858839
:1040B000EB1C9BB2062B03D883680BB1C2682AB9EC
:1040C000802000F04EFA0020BDE8F8834363C2630D
:1040D00000F11006FFF7C4FD0B4F00F1FF38291D5A
:1040E00047F82860C9B22268E074C4F82C903046C2
:1040F000FFF7C8FD3046FFF7E3FD57F82800034AF5
:10410000836A5A63BDE8F883F8110020593F00081C
:1041100008B5FFF711FE18B10138024B53F8200023
:1041200008BD00BFF811002008B5FFF70BFF38B13C
:10413000C078FFF743FEFF280CBF8120002008BD98
:10414000802008BD70B505460C46EFF3058686B99C
:10415000EFF31486F60706D4074E36781EB9BDE88D
:104160007040FFF79DBF28462146DFF810C000DFF2
:1041700070BD002070BD00BF40090020A1400008B4
:10418000830704D128B10369C2681B6803E00023D8
:1041900000E003461A4600EE103A00EE902A7047FF
:1041A000F8B5134B1C681F460CB32389013B2381D0
:1041B0002389E3B90F4B26681D683E6055B12B7803
:1041C000012B07D12846FFF705FC18B128462146E8
:1041D000FFF704FC6379012B04D120466189FFF7C6
:1041E000C7FE01E0012323710EB13446E0E7F8BDBC
:1041F0003C0900205814002010B504460846DFF89A
:104200000CC000DF84E80300204610BD8141000897
:1042100010B5044618B1016809B1406820B9802082
:1042200000F09FF9002010BD0378002BF7D1043176
:10423000890089B2FFF76FFB606810BD38B5104D7B
:104240002C78D4B921460F48FFF7E2FF0E4B2146E8
:1042500018600E48FFF724FF0D4B214618602046DA
:10426000FFF772FD0B4A13689B6A203383F30988BA
:104270001460FFF749FE01232B70002038BD00BFFA
:10428000400900204802002058140020500200205D
:1042900054140020FC08002030B50D4685B00446BB
:1042A000A0B10378012B13D10846FFF77BFE02A9CA
:1042B00082B22046FFF73CFB0128029C04D1002D6E
:1042C00014BF4023002305E0102303E0802301E016
:1042D000802300241846002300EE100A00EE904AC6
:1042E00001EE103A01EE903A05B030BD7FB50446BC
:1042F00016460846EFF30581A9B101AD00B10AB138
:1043000080230AE00378012BFAD102A9FFF76DFBA5
:10431000042801D0019601E01023019395E80700DD
:1043200084E8070005E01146DFF80CC000DF84E8F0
:104330000700204604B070BD994200087FB50A4BC3
:1043400003A819684FF0FF32FFF7D0FF039B102B33
:10435000F5D101A80499FFF74FFF019B002BEED088
:1043600002989847EBE700BF5814002030B5027858
:104370008C784368013AD2B22BB19D78A54202D322
:1043800018465B68F8E7022A4B60416003D803B126
:104390009960886030BD00238B6030BD027843682F
:1043A000013A59684160022A4FF0000204D809B16D
:1043B00088605A609A6000E05A60184670470000B2
:1043C000034B5A684260002282605860704700BF09
:1043D0005C090020114BDA6810B50AB19A8A0CE02A
:1043E00000248A1AC460D86003619A82848210BD56
:1043F000002CF5D0A38A1A4423468A42DC68F7D3FE
:10440000C460D860C468036104B12061521A92B2DA
:104410008282998A8A1A9A8210BD00BF44090020BC
:1044200038B5194DEB68002B2CD0AB8A013BAB8221
:10443000AA8A002A26D1144BDC681CB3A3683BB1BE
:1044400061685960616809B18B6062600023A36094
:104450000E482146FFF78AFFA38AAB826378042BBC
:1044600001BF0B4B1A68E38A9B1808BFA382012384
:104470006370E368EB60002213B103491961E260E5
:104480002261D5E738BD00BF440900205C09002047
:10449000F8080020836853B9084B5A68824202D159
:1044A00042685A6070471346002AF6D17047426846
:1044B0005A60426802B19360704700BF5C090020F7
:1044C00038B58468054624B94378012B0ED1084CD1
:1044D00003E023780BB9A468FBE72846FFF7DAFF6F
:1044E00020462946BDE83840FFF740BF38BD00BF31
:1044F0005C090020036910B573B1C268DA60C26854
:104500003AB1998A848A2144998213610023C36055
:1045100000E09A820023036110BD000030B50E4B0D
:10452000DD78EFF3108272B69A78AA4207D2013290
:104530009A701A78541CAC4208BF00241C7062B6F2
:10454000AA4204D203EBC2035860996030BD022036
:10455000BDE8304000F003B874110020FEE7FFF71B
:10456000D1B908B1FFF7CEB9704700000449054A38
:10457000C1F1005303F5FE339360D160704700BF73
:104580009C340020040200200020002104460D4637
:10459000094802F006FE03F081F920462946FFF79C
:1045A00035FDFFF7E3FF05480021FFF7CBFDFFF7DF
:1045B00041FD02F011FE0000F57500080402002024
:1045C000054B1B7823B9054B4FF080521A6070479A
:1045D000034B01221A7070476114002004ED00E0C3
:1045E0006014002038B5184B184D1868012343702B
:1045F000FFF7E6FE6C78AA78144BEAB103EBC4032C
:10460000586802781AB91989FFF7F2FA07E0012A07
:1046100003D19968FFF710FA01E000F069F8EB7830
:1046200001349C4208BF0024EFF3108372B6AB78CC
:10463000013BAB7062B6DEE75C700548FFF7AEFE8B
:10464000BDE83840FFF734BBFC080020741100209F
:104650005C090020084B1A68084B1A6000225A6057
:10466000072243F8042C064A136843F07F43136083
:104670004FF0FF30704700BFB0E7000814E000E0E3
:1046800020ED00E07047000008B50B4B18680123CF
:104690004370FFF795FEFFF749FA084A13680133A4
:1046A0001360FFF7BDFEFFF77BFD0548FFF776FEC1
:1046B000BDE80840FFF7FCBAFC080020F80800201D
:1046C0005C090020084B1B68DA78012A0AD0DA6AF4
:1046D0009B6A9A4203D81268044B9A4202D0012086
:1046E000FFF73DBF704700BFFC080020A52E5AE22F
:1046F000426810B57AB1FFF751FE0446FFF7FAFEA3
:10470000012161702046FFF75FFA21460448BDE8A9
:104710001040FFF72BBE42880132428010BD00BF1F
:104720005C090020EFF3108372B6026803F0010306
:104730000AB11168016003B962B610467047814240
:104740000DD3436899420AD2EFF3108372B6026820
:104750000A60016013F0010003D162B670470120C6
:104760007047002070477047024A13681433136083
:10477000704700BF5815002010B5054B0360044674
:1047800001F064FD204601F041FD204610BD00BF50
:1047900080EB000810B50B4C206801F047FC78B1A5
:1047A0002068543001F070FF074B084918702068EA
:1047B000074B01225430BDE810401A7001F06EBF63
:1047C00010BD00BFDC1500209D020020B8E70008E6
:1047D000E015002010B50C4C206801F027FC88B1D2
:1047E0002068543001F050FF084BC2B218702068A6
:1047F000074BA2F13101196054300649BDE8104061
:1048000001F04CBF10BD00BFDC1500209D02002050
:1048100014150020C6E70008F7B5194A1378033BC2
:104820000024012B8DF80740164626D8154D164B4F
:10483000DB7E9C421ADAE0B2294601F0CBF92F4622
:104840008DF8070038B1002001210DF10702FBF7B8
:104850007DFD052333702046396801F071F801466B
:104860002046043501F0CAF80134E0E7074A13682E
:1048700001331360064B01221A7003B0F0BD00BF74
:104880009E0200209C15002064140020CC140020FF
:104890001015002010B5044602F0FEFA204610BDA7
:1048A00010B50446FFF768FF204602F0F5FA2046EF
:1048B00010BD0000F8B55A4E5A4930685A4F54306E
:1048C00001F0ECFE594BDA685B681360584BDA680C
:1048D0005B681B041360574BDA685B681B0413604A
:1048E000554BDA685B681B041360BB7E012B01D05B
:1048F000002443E0514B00251D7000F0E5FF5048B7
:10490000504B8361C5624FF47A7101F0A7FC4E48A9
:104910004E4B8361C562142101F0A0FC30684C4904
:104920002A4601F086FB30684A49FA7E543001F08D
:10493000B5FE2C46FA7E95420BDA474B47495A574B
:10494000E8B201F0C1F904460120FEF7AFFF0135DE
:10495000F0E730684249543001F0A0FE74B9FB7EA4
:104960009C42C5DA30683F49543001F097FE2E4B27
:104970002046997E01F024F80134F0E7BB7E022B3B
:104980001BD12E4B30683849012500221D7001F0E3
:1049900050FB002C3CD1354B3548DA685B681B0472
:1049A00013600F21FBF7A8FD044688BB2846282189
:1049B00029221823FBF7F0FE04464CBBFBF7AEFCA4
:1049C000024620B130682B49543001F067FE306850
:1049D0002949543001F062FE306828496E22543073
:1049E00001F05CFE30682649543001F057FE306813
:1049F00022497922543001F051FEFBF73BFD044679
:104A000030B1074B1F4918682246543001F046FE6A
:104A100030681D49543001F041FE2046F8BD00BF0A
:104A2000DC150020E0E7000864140020BC1500201D
:104A30008C150020F4150020D01400201015002043
:104A40001815002019480008E014002069470008E4
:104A5000D5470008F9E70008950200209C140020C3
:104A600016E8000832E800089547000848150020BD
:104A70005C1500203EE8000850E80008DBE700086D
:104A800064E8000878E800088BE80008F8B51A4CDC
:104A90001A4D20681A49543001F000FEAB7E012BFC
:104AA00027460ED12B7F012B0BD100263446EB7EFF
:104AB0009E4207DA34B9304601F004FA0136044662
:104AC000F5E70024AB7E022B0DD194B92046FBF70D
:104AD0001DFF044668B90120FBF718FF044640B9E2
:104AE000FBF75AFD044624B938680649543001F0F2
:104AF000D5FD2046F8BD00BFDC1500206414002061
:104B0000A3E80008B4E800082DE9F347964D974C58
:104B1000EB686A681A606C2002F0C0F90A22064647
:104B20000921002301F018FE002330464FF4E13143
:104B30008DF80330266001F071FA20688C495430FA
:104B400087A3D3E9002301F0A9FD4FF001094F46E7
:104B5000A846884B1B78042B00F26383DFE803F040
:104B6000031433239C00FFF7A5FE824D8DF803004C
:104B700040B920688049543001F090FD01232B702A
:104B80007E4B0AE0052342E3FFF780FF794B8DF867
:104B9000030030B903221A70794BDA685B6813603E
:104BA000D7E705226DE3206876493A46543001F094
:104BB00075FDB7EE000AFEF76DFE6E4B7D1C0422FC
:104BC0001A702F46C5E720686F49704E674D6E23F7
:104BD0003A4654308DF8043001F060FD00F0C2FC1C
:104BE0008DF80300304600F0D9FC8DF803002068F2
:104BF0006749543001F052FD20686649543001AADB
:104C000001F060FD9DF8043003F0DF03592B07F13C
:104C1000010A38D128686049543001F03FFD286806
:104C20005E49543001F03AFD28685D49543001F086
:104C300035FD28685B49543006F11A0201F042FD47
:104C400001233377B37E012B05D0022B0CD12868CA
:104C5000554954300BE00823F3762868534B5449E8
:104C600061221A70543002E028685249543001F031
:104C700015FD464800F01EFD38218DF80300434A1B
:104C80000120FBF763FB3B4B00221A704A4BDA68AA
:104C90005B68136057465CE7484BDA685B681360F3
:104CA000474B1A78002A3FF454AF384A917E0229C4
:104CB000924600F08D8000251D703C4B1B78313BE7
:104CC000072B09F1010927D90A2399FBF3F603FB06
:104CD00016969AF81B309D4217DA02A9002341F874
:104CE000043D284600F0FEFE8DF803002EB9206832
:104CF0003449019A543001F0D1FC9DF8033013B1CE
:104D00001C4B05221A700135E3E7002E7FF421AF1A
:104D100020682D49543081E22C4B02A9186841F8D3
:104D2000045D00F0DFFE8DF803002068019D232163
:104D3000543001F09DFC20682914543001F098FC97
:104D400020682912543001F093FC20682946543021
:104D500001F08EFC20682421543001F089FCF8E633
:104D6000295C8FC2F528BC3FE4150020DC1500202B
:104D7000BEE800089E020020CDE8000804160020CE
:104D800014160020DEE80008FBE800086414002088
:104D90000FE900082AE900082DE900083CE90008AD
:104DA00048E900085EE900087BE900089D02002050
:104DB00061E9000897E90008CC15002024160020BE
:104DC00010150020B4E90008B1E90008141500200E
:104DD000A44D2B78002B3FF4BCAE2068A24EA34913
:104DE000543001F05BFC3378303B4A2B00F21182E7
:104DF000DFE813F056006F008800A1000F02BA0030
:104E0000D300EC000F0205010F020F020F020F0288
:104E10000F020F020F020F020F020F020F020F020A
:104E20000F020F020F020F020F020F020F020F02FA
:104E30000F020F020F020F020F020F020F020F02EA
:104E40000F020F020F020F020F020F020F020F02DA
:104E50000F020F020F021E015401C3016D018601F2
:104E60009F010F020F02D3010F020F020F02D801A0
:104E70000F02B801E2010F02DD014B00CE010F026B
:104E80000F02E701EE01F50100020120FBF71CFD16
:104E9000FBF7CEFB2068764900232B705430BDE130
:104EA0000120FBF711FDFBF7C3FB724B3278197839
:104EB000914208D000201A70FBF738FB20686E4939
:104EC000543001F0EBFB20686B4900232B70543009
:104ED000A4E10120FBF7F8FCFBF7AAFB654B327855
:104EE0001978914208D001201A70FBF71FFB206847
:104EF0006249543001F0D2FB2068604900232B70D6
:104F000054308BE10120FBF7DFFCFBF791FB594BA1
:104F100032781978914208D002201A70FBF706FB0C
:104F200020685749543001F0B9FB206854490023E8
:104F30002B70543072E10120FBF7C6FCFBF778FBC5
:104F40004C4B32781978914208D003201A70FBF745
:104F5000EDFA20684B49543001F0A0FB2068494924
:104F600000232B70543059E10120FBF7ADFCFBF717
:104F70005FFB404B32781978914208D005201A70B7
:104F8000FBF7D4FA20684049543001F087FB2068D1
:104F90003D4900232B70543040E10120FBF794FC85
:104FA000FBF746FB334B32781978914208D0062044
:104FB0001A70FBF7BBFA20683449543001F06EFBDD
:104FC0002068324900232B70543027E10120FBF781
:104FD0007BFCFBF72DFB274B32781978914208D0E8
:104FE00007201A70FBF7A2FA20682949543001F013
:104FF00055FB2068264900232B7054300EE1012018
:10500000FBF762FCFBF714FB1A4B327819789142DC
:1050100008D009201A70FBF789FA20681D4954301E
:1050200001F03CFB20681B4900232B705430F5E055
:105030000120FBF749FCFBF7FBFA0E4B327819789D
:10504000914208D00A201A70FBF770FA20681249C2
:10505000543001F023FB20680F4900232B7054309B
:10506000DCE000BFE01500209D020020B9E9000847
:10507000C2E9000894020020C9E90008D2E900084A
:10508000E5E90008F9E9000811EA00081BEA000850
:1050900023EA000834EA000849EA00080120FBF787
:1050A00013FCFBF7C5FA784B32781978914208D097
:1050B0000B201A70FBF73AFA20687449543001F05B
:1050C000EDFA2068714900232B705430A6E00120CE
:1050D000FBF7FAFBFBF7ACFA6B4B3278197891428D
:1050E00008D00D201A70FBF721FA20686849543067
:1050F00001F0D4FA2068664900232B7054308DE00B
:105100000120FBF7E1FBFBF793FA5F4B327819784C
:10511000914208D00E201A70FBF708FA20685D490A
:10512000543001F0BBFA20685A4900232B705430E8
:1051300074E00120FBF7C8FBFBF77AFA524B327898
:105140001978914208D018201A70FBF7EFF92068FF
:105150005149543001F0A2FA20684F4900232B70C6
:1051600054305BE00120FBF7AFFBFBF783FA2068CC
:105170004A4900232B70543050E00120FBF7A4FB78
:10518000FBF7A0FA2068464900232B70543045E015
:105190000120FBF799FB002017E00120FBF794FBAF
:1051A000012012E00120FBF78FFB02200DE001201F
:1051B000FBF78AFB032008E00120FBF785FB0420B6
:1051C00003E00120FBF780FB0520FBF7A3FA1DE0BD
:1051D0000120FBF779FB20683249543014E0FBF7DB
:1051E00027FA0120B7EE000AFBF722FB20682E49C0
:1051F000543009E0FBF71CFA0120B7EE000AFBF778
:1052000041FB20682949543001F048FA00232B70F3
:105210009FE42068264900232B70543001F03EFAA9
:1052200097E4D8F80430D8F80C20206821491B04F2
:105230001360214BDA685B681B0413601F4BDA684C
:105240005B681B0413601E4BDA685B681B04136009
:105250001C4BDA685B681B04136054309DF8032014
:1052600001F01CFA9DF803302BB1002001210DF153
:105270000302FBF76BF8B2EE040AFEF70BFB124BCE
:1052800001221A7065E400BF940200205CEA000865
:1052900072EA000884EA000898EA000891EA000827
:1052A000A2EA0008AAEA0008B6EA0008C4EA000870
:1052B000D2EA0008DCEA0008CC1500200416002021
:1052C00014160020241600209E0200202DE9F34130
:1052D0006C2001F0E3FD09210A220023044601F0BD
:1052E0003BFA344B344E354D1C604FF0FF37344C95
:1052F0000097052330460721062200F0B9FE2A4612
:105300002146304601F0C3FD42212E482E4EDFF8E3
:10531000EC80FBF733FA41212C48FBF72FFA4021B0
:105320002B48FBF72BFA43212A48FBF727FA1D23CA
:105330000097304601210B2200F09AFE2A462146B2
:10534000304601F0A4FD44212348244C244FFBF7B0
:1053500015FA45212348FBF711FA46212248FBF7AD
:105360000DFA47212148FBF709FA48212048FBF7AD
:1053700005FA2A211F48FBF701FA0026204600F013
:1053800025FFC4F80080A661E66220461A4C394623
:105390002A4601F07CFD204600F018FF20463946E1
:1053A0002A46C4F80080A661E66202B0BDE8F0417A
:1053B00001F06DBDDC1500209C1400209801002038
:1053C00067470008D01400205C150020F415002069
:1053D0008C150020BC150020E415002018150020B5
:1053E00079470008CC150020041600201416002070
:1053F0002416002048150020E014002080EB00084F
:1054000008B5062001F0FEFC00280CBF0320002098
:1054100008BD0000F8B5FFF7F3FF2148062101F0B1
:1054200003FD0546002839D11E4C1D48214638226F
:1054300001F00AFD23681BB9E368CBB913E001351D
:1054400063689D42F8D2AF000026A3689E42F6D260
:10545000144B13481B68D959042201EB860101F053
:10546000F3FC0136F1E70E4801F088FC0020F8BD9E
:10547000002623699E42F6D2B700002563699D424B
:105480000AD2084B0648DB68D959042201EB850192
:1054900001F0DAFC0135F1E70136EAE70120F8BD59
:1054A0007C16002034160020F8B5062104462C484E
:1054B00001F0D8FC054600284FD129482146382262
:1054C00001F0E0FC236813B9E3682BBB1FE06068C0
:1054D000800002F04FFB206063689D42F4D2A06818
:1054E0002668800002F046FBAF0046F82500002643
:1054F000A3689E4209D223681948D959042201EBB6
:10550000860101F0BFFC0136F2E70135E4E71448FB
:1055100001F034FC0020F8BD2069800002F02AFB75
:105520000025E06023699D42F1D26069E668800051
:1055300002F020FBAF0046F82500002663699E427A
:1055400009D2E3680648D959042201EB860101F02B
:1055500099FC0136F2E70135E4E70220F8BD00BF0F
:10556000741600201FB5062001A901F04DFC30B1D2
:10557000039B0A2B03D90748FFF796FF03E0062099
:1055800001F040FC0020044B01221A7005B05DF8C8
:1055900004FB00BF34160020841600202DE9F047DC
:1055A000044600287BD0414B1B78002B7AD0404D1D
:1055B000AB7E83766F68EB7EC3762B7F0377B80074
:1055C00002F0D8FA00262060BE421FD0D5F808802D
:1055D000D4F800A04FEA880002F0CCFA4AF826007E
:1055E00029684FEA86094944002343450CD00868DE
:1055F0009A0010440133D0F800E0206850F8090008
:105600000244C2F800E0F0E70136DDE72F69AB683D
:105610006660A360B80002F0ADFA0026E060BE420A
:105620001FD0D5F81480D4F80CA04FEA880002F0FF
:10563000A1FA4AF82600E9684FEA8609494400239E
:1056400043450CD008689A0010440133D0F800E0BC
:10565000E06850F809000244C2F800E0F0E70136C3
:10566000DDE76B6963612B7E23766B7E63762B6A45
:10567000236295F8243084F8243095F8253084F896
:105680002530AB6AA362EB6AE3622B6B236395F868
:105690003430266184F834300020BDE8F0870620DD
:1056A000BDE8F0870520BDE8F08700BF8416002024
:1056B000341600202DE9F047064600287BD0414BE8
:1056C0001B78002B7AD0404C837E4768A376C37E3C
:1056D000E376037F2377B80002F04CFA00252060C0
:1056E000BD42D6F808801DD04FEA8800D4F800A04B
:1056F00002F040FA4AF8250020684FEA850948443C
:10570000002343450CD0316851F809109A00114428
:105710000133D1F800E001680A44C2F800E0F0E784
:105720000135DDE7C4F80880D6F8108065604FEADF
:10573000880002F01FFA0025E060454577691CD01B
:10574000B800D4F80CA002F015FA4AF82500E06879
:105750004FEA850948440023BB420CD0F16851F858
:1057600009109A0011440133D1F800E001680A449D
:10577000C2F800E0F0E70135DFE7337E2376737E81
:105780006376336A236296F8243084F8243096F8DE
:10579000253084F82530B36AA362F36AE362336B81
:1057A000236396F834302561676184F83430BDE8AE
:1057B000F047FFF72FBE0620BDE8F0870520BDE8C3
:1057C000F08700BF841600203416002038B50F4D36
:1057D0000F4C284601F0CAFA28460E4D0E492246C3
:1057E00001F055FB284601F017FB28460B4D0C49EC
:1057F000224601F04CFB284601F02CFB28462246AD
:105800000849BDE8384001F042BB00BF6C160020DB
:10581000980100207C160020916D0008741600206D
:10582000A56D0008CD6D00081B4B582202FB00300F
:10583000F0B5024686464FF0020CDEE90245936A57
:10584000066CC1FB0345A30FD46A43EA850386FBBC
:10585000036784FB0145A61B65EB0707DEE90445EA
:10586000A4197D41CEE90245166B446C86FB0167A5
:1058700084FB0345341B67EB0505BCF1010FEEE922
:10588000044502F10C0200F10800194602D04FF065
:10589000010CD2E71846F0BD88160020072830B565
:1058A0000EDC084B582202FB0032156D536D481B6D
:1058B000C11A03EB61032B44DB101365506530BD47
:1058C000002030BD8816002038B5144C04F5307522
:1058D00000212046802244F8081C44F8041C02F0F1
:1058E0008EF90F4B2362E3620E4B23630E4B63630F
:1058F0000E4BA3630E4BE3630E4B236403F137435C
:105900000D4A6262A3F5A6230C4AA262A3F5AF6317
:1059100063645834AC42DBD138BD00BF9016002020
:1059200010191E3F5F79F187E6171E3F7646918872
:10593000E0672C3EAD7057872B7AF187EE171E3F3C
:105940002DE9F84F194E1A4D1A4B5824444306EBD3
:10595000040A8B46DAF804203159C2EB0B0281FBB2
:10596000058982FB0323B2EB080263EB0903D10F25
:1059700041EA43010746FFF791FF0F4DDFF83C80F6
:10598000CAF804B0A842B8BF284640450146A8BF9F
:10599000414631513846FFF747FFA842B8BF284675
:1059A0004045A8BF4046BDE8F88F00BF88160020DC
:1059B000C0CCCC87A099197C000080FFFFFF7F003E
:1059C000072838B50D4613DC0A4B4FF44B7404FB23
:1059D000003420460021C82202F011F9064B0020B5
:1059E000C4F82003C4F82403C4F828031D7038BD8C
:1059F000072038BD481900209F0200200728F0B575
:105A000049DC354A4FF44B7303FB0023D3F824538E
:105A1000002D44D0D3F82063CB2404FB00646FF046
:105A2000C70652F82440644394FBF6F4D3F8286385
:105A30003444C3F8284346F2A713994204DC274BA9
:105A40009942B8BF194601E046F2A8114FF44B73D2
:105A500003FB0023CB26D3F82043D3F8287306FB9F
:105A6000004642F82610C826494391FBF6F1394416
:105A7000C3F82813611CB54291FBF6F406FB141120
:105A8000C3F8201309DC4FF44B7303FB00200135EE
:105A9000C0F8245301E00720F0BD0020F0BD46F21D
:105AA000A714A142CBDDD3F82013CB2404FB0014B0
:105AB00046F2A81642F82460D3F82863084C013156
:105AC0003444C826C3F8284391FBF6F406FB1411AE
:105AD000C3F82013D7E700BF48190020589EFFFFE6
